:020000040800F2
:10000000780B002001010008092C0008FD260008DB
:10001000912B0008550900082D340008000000004D
:10002000000000000000000000000000AD2E0008ED
:100030006509000800000000AB2E0008AF2E000884
:100040001B0100081B0100081B0100081B01000820
:100050001B0100081B0100081B0100081B01000810
:100060001B0100081B0100086F0900081B010008A4
:100070001B010008590900081B0100081B010008AA
:100080001B0100081B0100081B0100081B010008E0
:100090001B0100081B0100081B0100081B010008D0
:1000A0001B010008312F00081B0100081B0100087C
:1000B0003D2F00081B010008492F00081B01000804
:1000C0001B0100081B0100081B0100081B010008A0
:1000D0001B010008DD3300081B0100082134000863
:1000E000670900081B0100081B010008DFF80CD09D
:1000F00000F0F4FB004800472D3E0008780B00207C
:100100000648804706480047FEE7FEE7FEE7FEE7B1
:10011000FEE7FEE7FEE7FEE7FEE7FEE72D2F00081D
:10012000ED000008202A04DB203A21FA02F0002129
:10013000704721FA02F3D040C2F1200291400843F7
:1001400019467047D2B201E000F8012B491EFBD2DC
:1001500070470022F6E710B513460A4604461946D2
:10016000FFF7F0FF204610BD421C10F8011B0029CC
:10017000FBD1801A7047F0B480EA0102D40F42002C
:10018000B2EB410F02D20246084611464A0042D065
:10019000C30DDDB2C1F3C752AD1A202D35DAC1F35C
:1001A000160141F4000204B15242C5F1200602FAE0
:1001B00006F12A411044B3EBD05F23D0C4B1012D26
:1001C000A0EBC35009DCF0BC4FF0004202EAC3527E
:1001D000DBB200F5000000F0DEBA400000F18070F4
:1001E00000EBC350A0F1807040EAD170490009E0F3
:1001F000490841EAC071A0EBC35000F50000400877
:1002000000EBC350F0BC00F0BDBA6142012202EB2A
:100210004101001BF6E7F0BC704781F00041AAE7FE
:1002200080F00040A7E780EA010210B502F0004329
:10023000400022D04A001FD0010E01EB1261C0F332
:100240005600C2F3560240F4000042F40002A0FB44
:10025000022000047F39140400D0401C50EA1240F0
:1002600001D44000491EC2B20C0604EBD010401C61
:100270004008802A02D003E0002010BD20F00100D9
:10028000002900DA0020184310BD2DE9FE4F8046FA
:1002900081EA0300C00F0C46009021F0004123F0DA
:1002A0000045B8EB0200A94105D2404621469046E0
:1002B0001C460B46024623F00040104347D0270D52
:1002C000C7F30A00C3F30A510290401A0190402874
:1002D0006BDAC3F3130040F4801B0098924620B100
:1002E0000023D2EB030A63EB0B0B01985946C0F1D4
:1002F0004002504600F025FA06460D465046594643
:10030000019A00F02DFA10EB08006141002487EA01
:10031000115284EAE7731A4340D0009A62B3019AFB
:10032000012A4FEA075215DC001B61EB02014FF076
:10033000004202EA0752CDE90042001C41F580115B
:1003400032462B4600F064FA03B0BDE8F08F404619
:100350002146F9E7001B61EB0201001C41F5801307
:1003600000185B412018A2F5001747EB030140EA93
:10037000D570B6196D4111E06D084FEA360645EAB1
:10038000C0754FEA0752001B61EB0201001C41F5EA
:10039000801149084FEA30000019514132462B467E
:1003A00003B0BDE8F04F00F024BA009801224000ED
:1003B0000023D0EB020263EBE073009821464FEA82
:1003C000E074B8EB000061EB0401E9E783F000435F
:1003D0005BE781F0004158E72DE9FE4F81EA030415
:1003E00004F0004421F0004100944FF0000B23F092
:1003F000004350EA01045ED052EA03045BD0C3F329
:100400000A54C1F30A552C44A4F2F3340194A0FB1E
:100410000254C1F3130141F48011C3F3130343F4F5
:10042000801301FB024400FB034E840A970A44EA4E
:10043000815447EA8357A4FB076802958D0A05FBA0
:1004400007854FEA932C04FB0C542705029D4FEAC5
:10045000065847EA1637B5EB08056EEB070C870E12
:10046000920E47EA811742EA8312A7FB0201B6EB1C
:100470000B0164EB00042B0D43EA0C335E1844EBD4
:100480001C50DA465146E7FB0201C5F313044FEA5C
:100490000B3343EA14534FEA0432019C43EA060348
:1004A000A4F10C040294009CCDE900B400F0B0F972
:1004B00003B0BDE8F08F00200146F9E72DE9F04DCB
:1004C00081EA030404F0004B21F0004514464FF08C
:1004D000000A23F0004150EA050220D054EA01024C
:1004E0001DD0C5F30A570246C5F31303C1F3130029
:1004F000C1F30A5640F4801543F48013A7EB0608B5
:10050000101BD64608F2FD3873EB050002D308F144
:10051000010801E092185B41B8F1000F03DA0020F6
:100520000146BDE8F08D00204FF480110646844658
:100530000EE0171B73EB050705D3121B63EB0503D6
:1005400006434CEA010C49084FEA300092185B411F
:1005500050EA0107EDD152EA030012D082EA04000A
:1005600083EA0501084305D0101BAB4106D20122E6
:10057000002306E000224FF0004302E06FF001028A
:1005800053101AEB06004CEB085110EB0A0041EB3C
:100590000B01BDE8F04D00F02CB970B521F000431F
:1005A00003430CD0C1F30A550024D5EB040564EBDA
:1005B0000403D617AD1AB34102DB0020014670BD1B
:1005C000201841EB025170BDC10F80EAE070084471
:1005D000CA079623002100F0DEB80EB540F2334181
:1005E00002910021CDE900110A460B4600F010F9F6
:1005F00003B000BD00F0004220F00040C10DC0F388
:10060000160040F400007F2901DA00207047962987
:1006100003DCC1F19601C84001E096398840002A08
:10062000F4D04042704700F0004230F000400AD061
:10063000C10D01F56071C0F3160042EA0151C20814
:1006400040071143704700200146704730B5041E33
:1006500071F1000404DB4FF00044404264EB0101FF
:10066000141E73F1000405DB1C464FF00043524298
:1006700063EB0403994208BF904230BD01F0004390
:1006800030B421F0004150EA010206D00A0DA2F573
:100690006072C1F31301002A02DC30BC00207047F5
:1006A000440F44EAC104C100E01830BC00EBC25062
:1006B00000F068B830B50B46014600202022012426
:1006C00009E021FA02F59D4205D303FA02F5491B20
:1006D00004FA02F52844151EA2F10102F1DC30BD36
:1006E0002DE9F05F0546002092469B468846064667
:1006F000814640241BE02846414647462246FFF7F4
:1007000011FD53465A46C01A914110D3114618465E
:10071000224600F016F82D1A67EB01084F462246D4
:100720000120002100F00DF817EB00094E41201EBA
:10073000A4F10104DFDC484631462A464346BDE8C1
:10074000F09F202A04DB203A00FA02F100207047D3
:100750009140C2F1200320FA03F3194390407047FF
:10076000202A06DBCB17203A41FA02F043EAE07375
:1007700006E041FA02F3D040C2F120029140084362
:10078000194670470029A8BF7047401C490008BFA0
:1007900020F00100704710B4B0FA80FC00FA0CF0B1
:1007A00050EA010404BF10BC704749B1CCF12004E9
:1007B00021FA04F411FA0CF118BF01212143084376
:1007C000A3EB0C01CB1D4FEA00614FEA102042BFA2
:1007D000002010BC704700EBC35010440029A4BF98
:1007E00010BC7047401C490008BF20F0010010BC3D
:1007F000704710B5141E73F1000408DA401C41F173
:10080000000192185B411A4301D120F0010010BD94
:100810002DE9F04D92469B4611B1B1FA81F202E00A
:10082000B0FA80F220329046FFF78BFF04460F4665
:1008300040EA0A0041EA0B0153465A46084313D0E6
:10084000114653EA010019D0C8F140025046FFF7A3
:1008500069FC05460E46504659464246FFF771FF71
:10086000084305D0012004E020463946BDE8F08D5C
:100870000020054346EAE0762C4337430A98630597
:10088000E40AA0EB08000022FD0A44EA47540A30BB
:1008900002D500200146E9E7010510196941DDE9AB
:1008A000084500196941BDE8F04DA2E7C1F30A52BD
:1008B000C1F3130140F2FF3341F480119A4202DA8E
:1008C00000200146704740F233439A42A2F233427D
:1008D00002DC5242FFF726BCFFF733BF064C074D40
:1008E00006E0E06840F0010394E807009847103400
:1008F000AC42F6D3FFF7FEFBE4590008045A0008A7
:1009000070B5044600688168C943C90716D181687B
:1009100021F00101816000F0C1FB054609E000F013
:10092000BDFB401B022804D920688068C043C00773
:1009300006D020688068C043C007F0D0002070BD9A
:10094000A06A40F01000A062E06A40F00100E0629E
:10095000012070BDFEE70000014800F0B5B90000BD
:10096000F401002070474FF4805000F09BBA102033
:1009700000F098BA72B6FEE7F8B50023009390F83D
:1009800024201C46012A12D0012280F824204A6823
:100990001F26072A0DD205686F6B521E02EB8202DA
:1009A0009640B7430E68964037436F6319E00220C4
:1009B000F8BD05680D2A0AD22F6BD21F02EB820206
:1009C0009640B7430E68964037432F6309E0EF6ABD
:1009D0000D3A02EB82029640B7430E6896403743C9
:1009E000EF620A68072605680A2A0AD3EF680A3AFE
:1009F00002EB42029640B7438E6896403743EF6061
:100A000008E02F6902EB42029640B7438E68964099
:100A100037432F610A68102A01D0112A20D1124DC4
:100A20000268AA4217D195682D0219D4956845F439
:100A3000000595600968102912D10C490C4A096813
:100A4000B1FBF2F101EB8101490000E0491E009188
:100A50000029FBD104E0816A41F020018162012379
:100A600080F824401846F8BD0024014024000020EE
:100A700040420F002DE9F0414FF0000604003546DA
:100A80007ED0A06A002728B9E76284F82470204647
:100A900000F07EF82046FFF733FFA16A01F0100155
:100AA000014304D0A06A40F01000A06268E0A16A8F
:100AB00021F4885141F00201A1626268E169237B5F
:100AC0000A4346EA43010A43A1684FF48076B142E3
:100AD00008D0012906D0002194F814C0BCF1010F00
:100AE00002D00AE03146F7E7F3B1A36A43F02003EE
:100AF000A362E36A43F00103E3622368D3F804C00E
:100B00002CF4694C4CEA010CC3F804C021688B68D2
:100B1000DFF870C003EA0C0313438B60A168B14295
:100B20000BD0012909D00CE0DFF85CC0A3690CEB05
:100B300043330B4343F40061DFE7218A0D05A5F53C
:100B400080152168CB6A23F470032B43CB622168A4
:100B500089680E4B1940914208D1E762A16A21F0E1
:100B6000020141F00101A162BDE8F081A06A20F01C
:100B7000020040F01000A062E06A40F00100E06274
:100B80000120F1E7FDF7E1FF00E0FFFFFE0E1FFF90
:100B900000B585B000210091019102910391006898
:100BA0000E49884218D10E48816941F48061816103
:100BB000816901F480610491816941F004018161DE
:100BC0008069694600F00400049010200090032022
:100BD0000190044800F072F905B000BD0028014002
:100BE000001002400008014010B590F821100022CA
:100BF000022905D00421816380F82020012010BD46
:100C000001680B6823F00E030B6001680B6823F08A
:100C100001030B6090F84030012404FA03F1C36B28
:100C2000596080F8214080F82020104610BD000057
:100C300010B590F821100024022903D0042181630B
:100C400001243DE001680A6822F00E020A60016892
:100C50000A6822F001020A601A4A0168914201D131
:100C6000012121E0174A1432914201D110211BE0E9
:100C7000144A2832914201D1891515E0114A3C32BB
:100C8000914201D189140FE00E4A5032914202D1B3
:100C90004FF4803108E00B4A6432914202D14FF4A4
:100CA000801101E04FF08071064A083A516001213D
:100CB00080F82110002180F82010416B01B1884795
:100CC000204610BD080002402DE9F05FC16B0B68A3
:100CD00001680A68046C4FF0040C0CFA04FC4A4DDD
:100CE000DFF828A14A4E4B4FDFF82CB1DFF82CE19A
:100CF0001CEA030F2DD05FEA427C2AD50A689206CF
:100D000003D40A6822F004020A600168A94201D1F2
:100D1000042119E0514501D1402115E0B14202D131
:100D20004FF4806110E0B94202D14FF480410BE0F2
:100D3000594502D14FF4802106E0714502D14FF4AC
:100D4000800101E04FF080612F4A083A5160C16A8A
:100D50003BE04FF0020808FA04F818EA030F4FF0DE
:100D600000094FF0010C35D05FEA827832D50A686D
:100D7000920605D40A6822F00A020A6080F821C0AF
:100D80000168A94201D1022119E0514501D1202178
:100D900015E0B14202D14FF4007110E0B94202D126
:100DA0004FF400510BE0594502D14FF4003106E0F9
:100DB000714502D14FF4001101E04FF00071124A69
:100DC000083A516080F82090816A00291AD0BDE865
:100DD000F05F08470825A5401D4213D0120711D522
:100DE0000A6822F00E020A6090F84010C26B0CFAFA
:100DF00001F15160C0F838C080F821C080F820901F
:100E0000016BE2E7BDE8F09F080002401C000240D1
:100E10003000024044000240580002406C00024092
:100E200030B528B302C8134A14230A44B2FBF3F2C4
:100E30009200C263104A8263022242770B6843F633
:100E4000F0729343D0E900242243D0E902452C43B9
:100E500022430469224344692243846922431A439A
:100E60000A6000214163012242770177084630BDC4
:100E7000012030BDF8FFFDBF0000024070B5044600
:100E800000F00CF90546601C02D0044800780444C8
:100E900000F004F9401BA042FAD370BD18000020F6
:100EA00070470000044910B50A68024202D0086089
:100EB000FFF7F6FF10BD0000140401402DE9F84FC4
:100EC000DFF8A491002409F1040A0AF1040B234677
:100ED0004FF00F080BF1040EBEE00127A7403A4087
:100EE000BA4272D1DFF884C14D68A5EB0C066545A6
:100EF0002BD00DDC032D34D005DC35B3012D19D0FA
:100F0000022D2FD11BE0112D16D0122D2AD119E060
:100F1000B6F5881F19D006DCB6F5803F15D0B6F5BA
:100F2000801F1FD111E0B6F5001F0ED0B6F5041FCB
:100F300018D10AE0CB6815E0CB681B1D12E0CB6826
:100F400008330FE0CB680C330CE08B682BB1012B1E
:100F50004FF0080303D0476104E0042302E0076177
:100F600000E00023FF2A01D8064601E000F1040654
:100F70004FEA840501D9A5F12005376808FA05FC78
:100F800027EA0C0703FA05F547EA050737604D68BD
:100F9000ED0060D5364DAE6946F00106AE61AD6933
:100FA00024F0030605F001050095324D7719BE685F
:100FB000A5072D0F08FA05FC26EA0C06DFF8B8C0D5
:100FC000604503D14FF0000C17E044E0DFF8ACC0FF
:100FD000604502D14FF0010C0FE0DFF8A4C060457E
:100FE00002D14FF0020C08E0DFF898C0604502D152
:100FF0004FF0030C01E04FF0040C0CFA05FC4CEA36
:10100000060CC7F808C04D68D9F80060ED034D46DE
:1010100001D5164300E096432E604D68DAF8006073
:10102000AD03554601D5164300E096432E604D684A
:10103000DBF80060ED025D4601D5164300E0964303
:101040002E604D68DEF80060AD02754601D516438E
:1010500000E096432E60641C0A6832FA04F57FF4BF
:101060003CAFBDE8F88F0000000401400000111003
:10107000001002400000014000080140000C014047
:1010800000100140001401408068084000D0012099
:1010900070470AB1016170470904FBE701488068A5
:1010A000704700001800002002488168027811444F
:1010B0008160704718000020074810B5016841F0B2
:1010C00010010160032000F075F80F2000F006F811
:1010D00000F024F8002010BD0020024070B50D4D36
:1010E00004464FF47A712878B1FBF0F00A49096898
:1010F000B1FBF0F000F062FB48B9102C07D20022DF
:101100002146501E00F036F800206C6070BD0120B2
:1011100070BD000018000020240000200C4808B515
:10112000816941F001018161816901F00101009152
:10113000C16941F08051C161C069064900F0805029
:101140000090486820F0E06040F00070486008BD02
:101150000010024000000140002809DB00F01F02DF
:10116000012191404009800000F1E020C0F8001109
:1011700070470000F0B40E4B1B68C3F30223C3F1A9
:101180000704042C00D904241D1D072D01D20023BF
:1011900000E0DB1E012606FA04F56D1E0D409D40A1
:1011A0009E40761E164045EA0601F0BC02F0C4B926
:1011B0000CED00E0064A00F0070110684FF6FF034F
:1011C000184040EA012003490843106070470000BE
:1011D0000CED00E00000FA052DE9F8430446007824
:1011E000344FC00752D0F8690025C00008D4F86910
:1011F00040F08050F861F869012500F080500090BF
:101200002D480168C90511D40168804641F48071F8
:101210000160FFF743FF064604E0FFF73FFF801B36
:10122000642822D8D8F80000C005F6D5386A10F432
:10123000407020D0A18801F4407181421BD0386AEF
:101240001E49012220F440700A6000220A603862C0
:10125000C00710D0FFF722FF064641F2883807E0AA
:10126000FFF71CFF811B414502D90320BDE8F8832D
:10127000386A8007F4D5386A616820F44070084302
:1012800038621DB1F86920F08050F861207880073D
:1012900005D57868A16820F440400843786020783C
:1012A000C00605D57868E16820F4800008437860BE
:1012B0000020DBE700100240007000404004424282
:1012C0002DE9F0470D46040067D0DFF81881D8F803
:1012D000000000F00700A8420CD2D8F8001021F05E
:1012E00007012943C8F80010D8F8000000F00700F3
:1012F000A84252D120683C4E810712D5400703D541
:10130000706840F4E06070602078000703D5706872
:1013100040F4605070607068A16820F0F0000843ED
:1013200070602078C00727D06068012810D031682D
:10133000022810D0890700292FDA716821F00301F3
:1013400001437160FFF7AAFE074641F288390CE0BD
:1013500031688903EFE78901EDE7FFF79FFEC11BC5
:10136000494502D90320BDE8F0877068616800F044
:101370000C00B0EB810FF0D1D8F80010404601F01E
:101380000701A9420BD9016821F007012943016037
:10139000006800F00700A84201D00120E3E72078B0
:1013A000400705D57068E16820F4E060084370608C
:1013B0002078000706D57068216920F4605040EA63
:1013C000C100706000F038F87168084AC1F3031179
:1013D000515CC8400649086006480068FFF77EFE79
:1013E0000020C0E70020024000100240B451000875
:1013F000240000201C0000200448054900684968BA
:10140000044AC1F30221515CC84070472400002007
:1014100000100240C45100080448054900684968AA
:10142000044AC1F3C221515CC84070472400002027
:1014300000100240C451000812A085B00FC88DE80A
:101440000F0014A0144B006804905968134801F071
:101450000C02042A10D0082A0ED1C1F38342C9031A
:101460001DF802000AD5596804AAC1F34041515C35
:101470000A4A5043B0FBF1F005B0704708494843B1
:10148000FAE7000002030405060708090A0B0C0D21
:101490000E0F1010010200000010024000127A002E
:1014A00000093D002DE9F84F04006FD02078BE4DB3
:1014B000C00747D06868C0F38100012807D068687A
:1014C000C0F38100022809D16868C00306D52868E6
:1014D000800337D560680028E7D033E06068B0F556
:1014E000803F0BD010B1B0F5A02F11D0286820F4A8
:1014F00080302860286820F4802002E0286840F4CA
:1015000080302860606888B1FFF7C8FD064609E0B2
:10151000286840F480202860F0E7FFF7BFFD801BBB
:10152000642873D828688003F7D50BE0FFF7B6FD71
:10153000064604E0FFF7B2FD801B6428F1D8286856
:101540008003F7D42078DFF8648280074FF0010A27
:101550004FF0000939D5686810F00C0F07D06868A3
:10156000C0F38100022809D16868C00306D4286846
:10157000800714D52069012808D110E02069B0B196
:10158000C8F800A0FFF78AFD064605E007E1FFF76F
:1015900085FD801B0228C4D828688007F7D52868F5
:1015A000616920F0F80040EAC10028600DE0C8F849
:1015B0000090FFF773FD064604E0FFF76FFD801B08
:1015C000022823D828688007F7D4207800072CD574
:1015D0007748A169D9B1C0F800A0FFF75FFD0646C2
:1015E00004E0FFF75BFD801B02280FD8686A8007C4
:1015F000F7D570484FF4FA510068B0FBF1F0009055
:1016000000BF0098411E0091FAD20EE07CE0C0F8C5
:101610000090FFF743FD064604E0FFF73FFD801B07
:10162000022871D8686A8007F7D4207840075BD514
:10163000E8690027C00008D4E86940F08050E861FC
:10164000E869012700F0805000905B480168C905F7
:1016500011D40168834641F480710160FFF71EFDDB
:10166000064604E0FFF71AFD801B64284CD8DBF81F
:101670000000C005F6D5E06801280AD008B10528A9
:1016800013D0286A20F001002862286A20F00400A4
:1016900002E0286A40F001002862E06841F2883BDD
:1016A00088B1FFF7FBFC064609E0286A40F0040019
:1016B0002862EEE7FFF7F2FC811B59455BD8286AE8
:1016C0008007F7D50BE0FFF7E9FC064604E0FFF7DB
:1016D000E5FC811B59454ED8286A8007F7D41FB115
:1016E000E86920F08050E861E069A8B36968C1F357
:1016F0008101022946D00228484606D0C8F8600079
:10170000FFF7CCFC044639E035E04746C8F86000F6
:10171000FFF7C4FC064604E0FFF7C0FC801B02286C
:1017200029D828688001F7D4206AB0F5803F05D118
:101730006868A16820F4003008436860D4E90801B3
:101740000843696821F4741108436860C7F860A011
:10175000FFF7A4FC044605E023E0FFF79FFC001B15
:10176000022808D828688001F7D51AE0FFF796FC10
:10177000001B022802D90320BDE8F88F28688001E9
:10178000F4D40EE00128F7D06868226A00F48031B2
:10179000914204D1616A00F47010884201D00120A6
:1017A000EAE70020E8E700000010024000004242A3
:1017B00080044242240000200070004010B5401E0A
:1017C000B0F1807F01D3012010BD4FF0E0246061B3
:1017D0000F21601701F0B0FE0020A06107202061FA
:1017E000002010BD7047704710B590F83C20012ACA
:1017F00022D0012280F83C20CA688C6822F4407212
:1018000022434C6822F4806222430C6822F4006276
:1018100022430C6922F4805222434C6922F4005284
:101820002243C969002322F480420A4301684A64C2
:1018300080F83C30002010BD022010BD70B590F83B
:101840003C20012A26D0012580F83C50022280F855
:101850003D2002685368946823F070060B68334398
:1018600053600D4B02689A4208D0B2F1804F05D008
:101870000A4B9A4202D00A4B9A4204D1496824F09A
:1018800080031943916080F83D50002180F83C109E
:10189000084670BD022070BD002C014000040040CD
:1018A0000008004010B5040003D094F83D0010B1CA
:1018B00007E0012010BD002084F83C00204600F025
:1018C0001FF8022084F83D00211D206801F042FB32
:1018D000012084F8460084F83E0084F83F0084F834
:1018E000400084F8410084F8420084F8430084F802
:1018F000440084F8450084F83D00002010BD00003D
:1019000008B500680B49884212D10B48816941F43F
:10191000006181618069002200F40060009011463E
:101920001920FFF727FCBDE808401920FFF714BC79
:1019300008BD0000002C01400010024090F83D104E
:10194000012901D001207047022180F83D10016873
:10195000CA6842F00102CA6000680B49884208D098
:10196000B0F1804F05D00949884202D00849884229
:1019700004D1816801F00701062903D0016841F014
:101980000101016000207047002C0140000400406C
:101990000008004070B5044690F83C00012817D0BC
:1019A000012584F83C50022084F83D0020688268BC
:1019B00022F0770222F47F4282600868502830D0FB
:1019C0000DDC20284DD005DC98B310283BD148E031
:1019D000022070BD302844D0402834D139E060283E
:1019E00028D0702806D0B0F5805F2CD0B0F5005F0D
:1019F00029D10AE0CB68D1E90121206801F0EDFA94
:101A00002068816841F0770109E0CB68D1E90121C4
:101A1000206801F0E2FA2068816841F48041816029
:101A200011E0CA684968206801F092FB50212068E3
:101A300007E016E0CA684968206801F09AFB602157
:101A4000206801F0D4FA84F83D50002084F83C006E
:101A500070BDCA684968206801F07AFB402120689F
:101A6000EFE7226801461046EBE72DE9F0410D460D
:101A7000040003D094F83D0018B108E00120BDE84F
:101A8000F081002084F83C00204600F041F802205C
:101A900084F83D002068816844F207029143816028
:101AA000211D206801F056FA206881688269066A63
:101AB0002B68AF690B4340F203318A4342EA0722A5
:101AC000A968EF6911434FF6FC429143EA6841EA85
:101AD00007210A4329692F6A090141EA07311143A5
:101AE0006A686D6926F0220646EA05152A43836076
:101AF0002068816154F8460B0262012004F81F0936
:101B0000E0752076E0762077A0750020B7E700002A
:101B100000B585B000210091019102910391016807
:101B200023480122B1F1804F23D0224B99421ED18C
:101B3000C16941F00401C161C16901F0040104916E
:101B4000816941F0080181618069694600F00800FF
:101B50000490C020009002921748FFF7AFF90022CE
:101B600011461E20FFF706FB1E20FFF7F5FA05B011
:101B700000BDC16941F00101C161C16901F001010C
:101B80000491816941F0040181618069694600F036
:101B9000040004900320009002920848FFF78EF999
:101BA000002211461C20FFF7E5FA1C20DDE70000AB
:101BB0000010024000080040000C014000080140F5
:101BC00070B590F83E50044690F83F3090F84220AF
:101BD00090F84300022621B104290BD0012D16D123
:101BE0000FE0012D13D1012A11D184F83E6084F851
:101BF000426016E0012B0AD1012808D184F83F6029
:101C00000DE0012B03D1012A01D1012801D00120CF
:101C100070BD84F83E6084F83F6084F8426084F8C8
:101C2000436091B1042904D001220021206801F011
:101C3000C7F901220421206801F0C2F92068016877
:101C400041F001010160002070BD012200212068E7
:101C5000F2E7704770B50446006801694FF000056F
:101C6000C943890715D4C168C943890711D4E91E3E
:101C7000016101202077206880698007204602D01A
:101C8000FFF7E7FF04E000F0BFF8204600F04EF950
:101C9000257720680169C943490717D4C168C9433A
:101CA000490713D46FF004010161022020772068F6
:101CB000806910F4407F204602D0FFF7CAFF04E09D
:101CC00000F0A2F8204600F031F92577206801697C
:101CD000C943090716D4C168C943090712D46FF074
:101CE00008010161042020772068C0698007204630
:101CF00002D0FFF7AEFF04E000F086F8204600F0C7
:101D000015F9257720680169C943C90617D4C16848
:101D1000C943C90613D46FF0100101610820207770
:101D20002068C06910F4407F204602D0FFF791FF81
:101D300004E000F069F8204600F0F8F82577206804
:101D40000169C943C90708D1C168C943C90704D19A
:101D5000891E0161204600F03BF920680169C943F2
:101D6000090609D4C168C943090605D46FF080018A
:101D700001612046FFF736FD20680169C943490625
:101D800009D4C168C943490605D46FF04001016117
:101D9000204600F0BFF920680169C94389060BD4C9
:101DA000C168C943890607D46FF02001016120464C
:101DB000BDE87040FFF717BD70BD000000B585B0ED
:101DC0000021009101910291039100680B49884222
:101DD00012D10B48816941F0040181618069694633
:101DE00000F0040004904FF4106000900220019075
:101DF00003900448FFF762F805B000BD002C0140D5
:101E00000010024000080140704770B5044690F889
:101E10003C000D4601280AD0012084F83C0042B164
:101E2000042A18D0082A2AD00C2A4DD139E00220E1
:101E300070BD206801F0E4F82068816941F0080174
:101E400081612068816921F00401816120688169D4
:101E50002A69114311E0206801F0FEF820688169C9
:101E600041F4006181612068816921F480618161B0
:101E7000206881692A6941EA0221816124E02068A1
:101E800001F018F92068C16941F00801C1612068BA
:101E9000C16921F00401C1612068C1692A69114347
:101EA00011E0206801F032F92068C16941F4006155
:101EB000C1612068C16921F48061C1612068C16984
:101EC0002A6941EA0221C161002084F83C0070BD0A
:101ED00010B5040003D094F83D0010B107E00120D4
:101EE00010BD002084F83C00204600F01EF80220BF
:101EF00084F83D00211D206801F02CF8012084F8B1
:101F0000460084F83E0084F83F0084F8400084F8DE
:101F1000410084F8420084F8430084F8440084F8C7
:101F2000450084F83D00002010BD70477047000058
:101F300010B5044649B104290AD008290BD094F8F9
:101F4000410001280AD0012010BD94F83E00F8E7B6
:101F500094F83F00F5E794F84000F2E7022041B31F
:101F6000042929D008292AD084F8410001222068B8
:101F700001F026F813492068884203D1426C42F4EC
:101F8000004242642068884208D0B0F1804F05D0FA
:101F90000D49884202D00D49884204D1816801F080
:101FA0000701062903D0016841F00101016000200A
:101FB00010BD84F83E00D9E784F83F00D6E784F8E6
:101FC0004000D3E7002C014000040040000800401E
:101FD0002DE9F05F444988427ED1444C0521444FAD
:101FE000E088401C80B2B0FBF1F2E08001FB1200FF
:101FF0000025E8BB3F480068416A3F4A494209B2B0
:10200000618013685B6A1EB2A680456210684562F3
:102010000846FEF7D9FADFF8E4804146FEF703F9F7
:10202000FEF701FBDFF8D8A04FF033394A4653469C
:10203000FEF744FA00223B46FEF740FA6FF0010B30
:102040005A46FEF7AAFAFEF719FBA0603046FEF7E3
:10205000BBFA4146FEF7E7F8FEF7E5FA4A46534673
:10206000FEF72CFA00223B46FEF728FA5A4600E01B
:1020700005E0FEF792FAFEF701FBE060E580E088FC
:102080000A21B0FBF1F201FB1200002829D1A0685F
:10209000FEF7C9FA1B4A1C4BFEF79EF900223B468D
:1020A000FEF79AF906460F462069FEF7BCFA32465B
:1020B0003B46FEF7EAF8FEF7E1FA20611348E168D3
:1020C00000F0CAFEFEF796FA06461148A16800F035
:1020D000C3FEFEF78FFA00E003E0314600F05AFD40
:1020E000E580BDE8F09F000094000020040000207F
:1020F0000000264024010020DC0000200000C8422F
:10210000333323407B14AE47E17A943F58030020D9
:10211000380300207047704770470000F8B5026828
:1021200004461068D168536910F00F0F4FF0000596
:1021300054D003F0010601F4907737435FD0C20713
:1021400005D0CA0503D5226C42F001022264420781
:1021500005D5DA0703D0226C42F00202226482071E
:1021600005D5DA0703D0226C42F00402226402078C
:1021700007D501F02002324303D0226C42F008025E
:102180002264226C002A35D0800604D5880602D548
:10219000204601F020F820684069216CC0F38010CF
:1021A00001F008010143204625D000F0FCFF206823
:1021B000416949061BD5416921F040014161A06B8D
:1021C000A8B158494163A06BFEF732FD002811D039
:1021D000A06B416B01B0BDE8F040084783060ED507
:1021E0008B060CD52046BDE8F84000F0F4BF204631
:1021F000FFF792FFF8BDFFF78FFF2564F8BD266B50
:102200002023012E52D1C60650D5CE064ED51068D9
:1022100050680090506940062AD5A16B0868406854
:102220000004000CEAD0A68D8642E7D9E0858869D3
:10223000202818D0D06820F48070D06020684169D0
:1022400021F0010141612068416921F040014161B3
:1022500084F83E3025632068C16821F01001C16018
:10226000A06BFEF7C1FCA08DE18D401A81B219E090
:10227000A08DE18D401A81B2E08D0028BED00029EA
:10228000BCD0D06820F49070D0602068426922F001
:102290000102426184F83E3025632068C26822F062
:1022A0001002C2602046FFF736FFF8BD05062BD5A9
:1022B0000D0629D594F83D002128F6D1A068B0F587
:1022C000805F01D12069B0B1206A411C2162216880
:1022D00000784860E08C401E0004000CE084E4D1EB
:1022E0002068C16821F08001C1602068C16841F0A8
:1022F0004001C160F8BD206A0088C0F3080050604A
:10230000206A801C2062E5E74006F3D54806F1D537
:10231000D168204621F04001D16084F83D3000F0C2
:102320008BF9F8BD9731000870B5040004D094F81B
:102330003D00002510B106E0012070BD84F83C503E
:10234000204600F023F8242084F83D002068C1686E
:1023500021F40051C160204600F098FF2068016917
:1023600021F4904101612068416921F02A01416115
:102370002068C16841F40051C1602564202084F8C0
:102380003D0084F83E00002070BD0000F0B585B02F
:10239000002400940194029403940646016838488E
:1023A000364F022203230515B94226D1816941F433
:1023B00080418161816901F480410491816941F02A
:1023C0000401816180692F4E00F004000490100226
:1023D000CDE90002694603933046FEF76FFDCDE973
:1023E0000054694630460294FEF768FD002211460B
:1023F0002520FEF7BFFE25203BE0234FB9423AD10E
:10240000C16941F48021C161C16901F48021049155
:10241000816941F0080181618069CDE9005200F0D5
:102420000800CDE90330194D69462846FEF746FD00
:10243000E814CDE90004694628460294FEF73EFD03
:10244000144D1348C5E900048020C5E902402C6101
:102450006C61AC612846EC61FEF7E2FC08B1FEF766
:1024600089FAB5630022114627206E62FEF782FECC
:102470002720FEF771FE05B0F0BD000000380140D6
:10248000001002400008014000480040000C0140DC
:1024900030000240F40100202DE9F84F044690F886
:1024A0003E00984615460E46202855D10EB305B37A
:1024B00094F83C0001284FD0012084F83C004FF0F4
:1024C0000009C4F84090222184F83E10C4F83090EE
:1024D000FEF7E4FDA5858246E585A0684FF48057A8
:1024E000B84201D1206938B13546002684F83C90C5
:1024F00027E00120BDE8F88F0025F7E753460022CA
:1025000020212046CDF8008000F037FF08B10320DD
:10251000F0E725B1A068B8421BD038B108E02068C8
:102520004068C0F3080026F8020B07E0206980B17C
:102530002068406800F07F0005F8010BE08D401E28
:10254000E085E08D0028D9D1202084F83E000020CD
:10255000D0E720684068EFE70220CBE790F83E30F4
:10256000202B0ED159B152B190F83C30012B08D03C
:10257000012380F83C300023036300F0E3BE012018
:1025800070470220704770472DE9F843044690F8E1
:102590003D001F4615460E4620284BD1C6B1BDB1A1
:1025A00094F83C00012845D0012084F83C004FF00D
:1025B0000008C4F84080212084F83D00FEF76EFD3D
:1025C000A5848146E584A068B0F5805F03D004E06F
:1025D0000120BDE8F883206920B13546002684F843
:1025E0003C800EE00025FAE78021204600F0C5FE81
:1025F000A0B9ADB115F8010B21684860E08C401E10
:10260000E084E08C4B464FF0000200970028EBD1AD
:102610004FF04001204600F0B0FE30B10320D8E773
:1026200036F8020BC0F30800E6E7202084F83D00EE
:102630000020CEE70220CCE770470000064908B52D
:102640000968064AC908B1FBF2F14143009100BF95
:10265000491E0091FBD208BD2400002040420F001B
:1026600070B5204D0024012220212846FEF711FDDF
:102670000F20FFF7E3FF002220212846FEF709FD87
:10268000194D1A4E07E00120641CFFF7D7FFAC423A
:1026900001D9174870BD40213046FEF7F5FC0028EF
:1026A000F1D0002408E00120641CFFF7C7FFAC4212
:1026B00002D94FF0404070BD40213046FEF7E4FCA7
:1026C0000128F0D06000FDF788FF0A4A0A4BFDF7A9
:1026D00083FE4FF0FF32FDF760FFBDE87040FDF76D
:1026E000CDBF0000000C0140A086010000080140A1
:1026F000000080BF4C37894160E5A03FFEE7000045
:102700002DE9F04101220C4DD40321462846FEF765
:10271000C0FC0122094F160331463846FEF7B9FCCA
:10272000002231463846FEF7B4FC21462846BDE873
:10273000F0410022FEF7ADBC00080140000C014052
:1027400070B50122D1030948FEF7A3FC084D4FF4F0
:102750008054002221462846FEF79BFC214628464D
:10276000BDE870400122FEF794BC00000008014063
:10277000000C014070B50122064DD40321462846C5
:10278000FEF787FC21462846BDE870400022FEF790
:1027900080BC0000000801403EB5002111480091B6
:1027A00001910F4A02910260816001730175012459
:1027B0004FF460220461C2614160FEF75BF908B129
:1027C000FEF7D8F80420CDE9000402200290694603
:1027D0000448FEF7D1F8002801D0FEF7CBF83EBD43
:1027E0000028014064000020094808B5416941F013
:1027F000010141614069002200F001000090114692
:102800000D20FEF7B7FCBDE808400D20FEF7A4BC84
:10281000001002402DE9F04F85B000244D4800948F
:10282000019402940394816941F0100181618169EE
:1028300001F010010491816941F0200181618169F9
:1028400001F020010491816941F0040181618169F5
:1028500001F004010491816941F0080181618069FE
:10286000DFF8F4A000F008004FF4204504900022A7
:1028700029465046FEF70DFC01221703394637481A
:10288000FEF707FC42F22808002241463348FEF7D3
:1028900000FCDFF8CCB04FF400490122494658460D
:1028A000FEF7F7FB0095022601250396CDE90154BA
:1028B00069465046FEF702FBE020CDE90004694678
:1028C00058460294FEF7FAFA0320CDE9000469465F
:1028D00022480294FEF7F2FACDE90075CDE90256DE
:1028E00069461E48FEF7EAFACDF800800396CDE966
:1028F000015469461948FEF7E1FA1A480097CDE9F4
:10290000010569465846FEF7D9FACDE90095CDE9AB
:10291000025669465846FEF7D1FA10200090124838
:10292000CDE9010669460D48FEF7C8FA00221146B6
:102930000A20FEF71FFC0A20FEF70EFC00221146BB
:102940002820FEF717FC2820FEF706FC05B0BDE89E
:10295000F08F00000010024000100140000C014008
:1029600000080140000021100000111010B596B0C1
:1029700000240F9410941194129413941C2168460F
:102980001494FDF7E6FB202107A8FDF7E2FB2D4894
:102990002B49016040F29F51C0E901146321C0E955
:1029A00003148021C0E90541FEF77CFF08B1FDF763
:1029B000E1FF4FF480500F900FA92248FEF7EAFF85
:1029C00008B1FDF7D7FF1F48FFF782FA08B1FDF7FE
:1029D000D1FF139413A91B481494FEF72FFF08B1DD
:1029E000FDF7C8FF602000903220CDE90104039478
:1029F000049405940022694612480694FFF705FAEC
:102A000008B1FDF7B7FF0C2269460E48FFF7FDF944
:102A100008B1FDF7AFFF0794089409944FF40050F4
:102A20000A94CDE90B4007A906480E94FEF7DCFE98
:102A300008B1FDF79FFF0348FFF7C0F916B010BDBE
:102A4000002C01409400002010B58CB02421684671
:102A5000FDF77FFB0024164809944FF080410A944B
:102A6000C0E900144FF6FF71C0E9024104618461BE
:102A70000320CDE900040120CDE9020406210491E0
:102A8000CDE90540CDE9074169460948FEF7EDFF6C
:102A900008B1FDF76FFF099409A905480A94FEF7EC
:102AA000CDFE002801D0FDF765FF0CB010BD000081
:102AB000DC00002010B58CB024216846FDF749FBEE
:102AC00000241648099414490A94C0E900144FF6EA
:102AD000FF71C0E90241046184610320CDE9000473
:102AE0000120CDE9020406210491CDE90540CDE99C
:102AF000074169460948FEF7B8FF08B1FDF73AFFFC
:102B0000099409A905480A94FEF798FE002801D007
:102B1000FDF730FF0CB010BD00080040240100207C
:102B20000C4810B50A4901604FF4E13141600021C1
:102B300081600C22C160C0E904128161C161FFF7AC
:102B4000F3FB002803D0BDE81040FDF713BF10BD14
:102B5000003801406C0100200C4810B50A490160A2
:102B60004FF4E1314160002181600C22C160C0E975
:102B700004128161C161FFF7D7FB002803D0BDE8D3
:102B80001040FDF7F7BE10BD00480040B001002026
:102B9000FEE7000070B51A4E4542C1F1000401D5B0
:102BA000012200E0002208213046FEF772FA4FF4BD
:102BB0000051002C01DA012200E000223046FEF72D
:102BC00068FA10486FF06201002D05DA8D4200DAD4
:102BD0000D466435026803E0632D00DD632502685D
:102BE0005563002C05DA8C4200DA0C460068643428
:102BF00003E0632C00DD63240068046470BD000002
:102C0000000C014094000020FEE770B50025002173
:102C100005F1B00000F0FDF80021084600F0F9F8D9
:102C20000021102000F0F5F800240121002000F020
:102C3000F0F8641CE4B2802CF7D36D1CEDB2082DC3
:102C4000E5D370BD10B54FF44870FEF717F90021B9
:102C5000AE2000F0DEF80021084600F0DAF800218E
:102C6000102000F0D6F80021402000F0D2F800211A
:102C7000B02000F0CEF80021812000F0CAF8002139
:102C8000FF2000F0C6F80021A12000F0C2F80021CA
:102C9000A62000F0BEF80021A82000F0BAF800211C
:102CA0003F2000F0B6F80021C82000F0B2F8002163
:102CB000D32000F0AEF80021084600F0AAF8002169
:102CC000D52000F0A6F80021802000F0A2F8002115
:102CD000D82000F09EF80021052000F09AF800218D
:102CE000D92000F096F80021F12000F092F80021A0
:102CF000DA2000F08EF80021122000F08AF800217E
:102D0000DB2000F086F80021302000F082F800215E
:102D10008D2000F07EF80021142000F07AF80021C8
:102D2000BDE81040AF2000F074B810B50A46044664
:102D3000002102F1B00000F06CF8102040EA1410FD
:102D4000002100F066F804F00F00BDE810400021FB
:102D500000F05FB82DE9F041203A00240F4680468C
:102D6000D5B27F2803D900208F1C8046FFB2102BDC
:102D7000394610D0FFF7D9FF164905EB450001EBA6
:102D800040050121285D00F044F8641CE4B2062CE3
:102D9000F7D3BDE8F081FFF7C8FF0F4E04EB051035
:102DA0000121305C00F035F8641CE4B2082CF5D346
:102DB0007F1CF9B24046FFF7B8FF002404EB051072
:102DC00030440121007A00F024F8641CE4B2082C9D
:102DD000F4D3DEE7CC510008F45300082DE9F041AC
:102DE000984617460E46044600250DE043463146F8
:102DF0002046FFF7AFFF0834E4B2782C02D9002454
:102E0000B61CF6B26D1CEDB27A5D002AEED1BDE8BB
:102E1000F081C0B209B100F054BB00F03BBB000030
:102E20000A4900200A4B486008608860C860C1E910
:102E30000403084AC1E90620203148600860886020
:102E4000C860C1E90403C1E90620704738030020C7
:102E50000000A040000040402DE9F0410446006819
:102E6000FDF7DBF90546A06029462069FDF783F9E7
:102E7000206107462846E168FDF7CFF9E169FDF7D3
:102E8000D2F906463946A069FDF7CDF9074629462D
:102E90006069FDF7C8F93946FDF76DF93146FDF770
:102EA0006AF9E5606060BDE8F08170477047FEF741
:102EB000FBB830B593B028216846FDF74AF91421D4
:102EC0000AA8FDF746F9002401210F941094080484
:102ED000CDE9001011941294029402250491CDE9D9
:102EE00007504FF4E01009906846FEF7DBFA08B18E
:102EF00072B6FEE70F20CDE90A054FF48060CDE9F8
:102F00000C4002210AA80E94FEF7DAF908B172B655
:102F1000FEE74FF4004011900F950FA8FEF75CF903
:102F2000002801D072B6FEE713B030BD7047000034
:102F30000148FEF78FBE0000940000200148FEF714
:102F400089BE0000DC0000200148FEF783BE0000BF
:102F500024010020F0B50268164C174D174E4FF0B3
:102F60008047A04205D0B84203D0A84201D0B04269
:102F700003D122F070034A681A43A04205D0B84238
:102F800003D0A84201D0B04203D122F44073CA68F2
:102F90001A434B6922F080021A4302608A68C262B7
:102FA0000A688262A04201D109690163012141617D
:102FB000F0BD0000002C014000040040000800406B
:102FC00010B501F01F010123046A8B409C43046289
:102FD000036A8A401343036210BD10B5846842EA55
:102FE000032224F47F440A432243826010BD826896
:102FF00022F070020A4342F007018160704700002E
:1030000030B5026A22F001020262036A42688469F2
:1030100024F073050C682C4323F002058B682B43C6
:103020000C4DA84206D123F00805CB6843EA0503FE
:1030300023F0040307D14D6922F4407245EA0205EA
:103040008A6942EA05024260846149684163036219
:1030500030BD0000002C014030B5026A22F01002A1
:103060000262026A436884690D6824F4E64444EA13
:1030700005248D6822F0200242EA05120C4DA84278
:1030800006D1CD6822F0800242EA051222F0400209
:1030900007D14D6923F4406343EA85038D6943EA10
:1030A00085034360846149688163026230BD00002A
:1030B000002C014030B5026A22F480720262036A79
:1030C0004268C46923F4007324F073050C682C4330
:1030D0008D6843EA05230C4DA84206D1CD6823F440
:1030E000006343EA052323F4806307D14D6922F48A
:1030F000405242EA05128D6942EA05124260C461FB
:103100004968C163036230BD002C014030B5026ADA
:1031100022F480520262036A4268C4690D6824F492
:10312000E64444EA05248D6823F4005343EA05335A
:10313000064DA84204D14D6922F4804242EA85122C
:103140004260C46149680164036230BD002C0140E3
:1031500010B5046A036A23F001030362836923F054
:10316000F00343EA021324F00A020A438361026275
:1031700010BD10B5036A23F0100303628469036A6B
:1031800024F4704444EA023223F0A00343EA01111C
:103190008261016210BD10B5406A0021C185C18401
:1031A000FEF7BAFF10BD0168CA6822F49072CA60C7
:1031B00001684A6922F001024A61016B012904D1C8
:1031C0000168CA6822F01002CA60202180F83E100F
:1031D00000210163704708B590F83E10222901D004
:1031E000022008BD81684FF48053994201D10269E1
:1031F00022B1826A99421BD049B10AE00268816A11
:103200005268C2F308020A80816A891C08E00169D9
:1032100071B10168496801F07F011170816A491C30
:103220008162C18D491E0904090CC18503D019E0D2
:1032300001684968F1E70168CA6822F02002CA60A3
:103240000168CA6822F48072CA6001684A6922F083
:1032500001024A61202180F83E10016B012903D050
:10326000FFF791F9002008BD002101630168CA68D9
:1032700022F01002CA6001680A68D20602D50A6804
:1032800049680091818DFEF746FFEBE770B5044673
:1032900000680169E26821F4405111430161A168AD
:1032A00020690143606901432068C26841F20C63F0
:1032B0009A430A43C26020684169A26921F44071BF
:1032C000114341611E492068884202D1FEF7A4F8EB
:1032D00001E0FEF791F800EBC00101EB001160681E
:1032E00064228000B1FBF0F3B3FBF2F36FF0180639
:1032F0007343B1FBF0F5B1FBF0F605EB8305322328
:1033000003EB0515B5FBF2F5B6FBF2F605F0F0059B
:1033100005EB0615B1FBF0F6B1FBF0F0B0FBF2F0F7
:103320006FF01801484306EB800003EB0010B0FB80
:10333000F2F0216800F00F002844886070BD0000A2
:103340000038014081628285C28500210164222209
:1033500080F83E2080F83C100168CA6842F4807210
:10336000CA6001684A6942F001024A610068C168A6
:1033700041F02001C160002070472DE9F0411E4658
:10338000174688460446069D1CE0681C1AD025B1E5
:10339000FDF784FE801BA84214D92068C16821F47F
:1033A000D071C1602068416921F001014161202094
:1033B00084F83D0084F83E00002084F83C0003209F
:1033C000BDE8F0812068016838EA010004D00020DF
:1033D000B842DAD00020F3E70120F9E70D4810B534
:1033E00000680068800610D50B4A1078FF2801D3CA
:1033F000002010700949C0B20144401C10704FF405
:103400007A7301220348FFF747F8BDE810400148EE
:10341000FEF784BE6C01002004000020380200206A
:103420000148FEF77BBE0000B0010020FEE700006F
:103430002DE9F047154F04464FF40046002231466F
:103440003846FDF726FEDFF8489000254FF48058F7
:1034500004F08000802816D0002241464846FDF73F
:1034600018FE6006040E012231463846FDF711FEB3
:10347000002231463846FDF70CFE6D1CEDB2082DDA
:10348000E6D3BDE8F0870122E7E70000000801402D
:10349000000C014010B50446FFF732F97820FFF721
:1034A000C7FFFFF767F90020FFF7C2FFFFF762F9D8
:1034B0002046FFF7BDFFFFF75DF9BDE81040FFF7BD
:1034C0003FB910B50446FFF71BF97820FFF7B0FFAE
:1034D000FFF750F94020FFF7ABFFFFF74BF920460D
:1034E000FFF7A6FFFFF746F9BDE81040FFF728B940
:1034F0000FB4054B10B503A9044A029800F0EEF88A
:1035000010BC5DF814FB0000153E000828000020E8
:103510000FB4084B10B504A902AA039800F0DEF816
:10352000044602A9002000F070FC204610BC5DF8A3
:1035300014FB00000B3E00080907090E002804DBFD
:1035400000F1E02080F80014704700F00F0000F157
:10355000E02080F8141D704702E008C8121F08C15F
:10356000002AFAD170477047002001E001C1121F04
:10357000002AFBD1704700002DE9FF5FDDE9022042
:10358000010DDDF838B0024318D044F61050A1F216
:10359000FF3141430D140F98012820D0A5EB0B00FB
:1035A000401C5FEA000A4FF00004474EDFF81C9110
:1035B000A046504616D5CAF1000728E00F9801240E
:1035C00043A2012808D0002100980F9BC0E90021E8
:1035D000C0E90243BDE8FF9F6FEA0B01F4E7CBF1BE
:1035E0000000DEE7074612E0F80707D02246334620
:1035F00040464946FCF7F0FE80468946224633465F
:1036000010461946FCF7E8FE04460E467F10002FD0
:10361000EAD1DDE90201BAF1000F42464B4602DA77
:10362000FCF7DAFE01E0FCF749FF04460E460022F3
:10363000284BFDF70BF803D84FF0FF30014607E0A9
:103640000022254B20463146FCF71FFEFDF72EF9E0
:10365000102409E0002C0ADB0A220023FDF740F8C1
:10366000019B30321A55641E50EA0102F2D1641CEB
:10367000019AC4F1110314440F9A012A03D00122C4
:1036800008430DD10AE0084304D000204FF0110B8D
:103690000F9080E7A3EB0B056D1E0DE05B4504DD8D
:1036A0004FF0000205F1010504E003DA4FF00002DB
:1036B000A5F10105002AECD000980F99C0E902316C
:1036C000C0E9004586E70000000024400000F03F0C
:1036D000300000000000F0430000E03F2DE9FF4F04
:1036E00095B09B468946064600250FE2252877D1EE
:1036F00000242746F84A0121059400E0044316F807
:10370000013F203B01FA03F01042F7D130782A281C
:1037100011D06FF02F033078A0F13002092A16D8AB
:10372000059A44F0020402EB820203EB42021044C9
:10373000761C0590EFE759F8042B0592002A03DA6E
:10374000504244F40054059044F00204761C307852
:103750002E2816D116F8010F44F004042A280DD0A3
:103760006FF02F023078A0F13003092B09D807EB56
:10377000870302EB4303C718761CF3E759F8047B71
:10378000761C30786C280FD006DC4C2817D06828BF
:103790000DD06A2814D104E0742810D07A280FD1F3
:1037A0000DE044F400140AE044F4801401E044F411
:1037B00040147278824202D104F58014761C761C83
:1037C000307866280BD013DC582877D009DC002825
:1037D00075D04528F6D04628F4D047281AD19DE167
:1037E00018E0632835D0642879D0652812D195E196
:1037F000702873D008DC6728F1D069286FD06E2854
:103800000DD06F2806D1B5E073282CD0752875D05F
:10381000782874D05A46179990476D1C75E1C4F307
:103820000250022809D003280DD0D9F8001004282E
:103830000DD00D6009F1040967E1D9F80010EA170D
:10384000C1E90052F6E7D9F800100D80F2E70D70DB
:10385000F0E719F8041B8DF8001000208DF8010026
:10386000EA46012003E059F804AB4FF0FF3061074E
:103870004FF0000102D40DE008F101018846B94281
:103880000FDA8045F8DB1AF808100029F4D108E0B7
:1038900008F1010188468142FADB1AF80810002974
:1038A000F6D105985B46A0EB080721463846179AE3
:1038B00000F094FA284400EB080507E04DE029E108
:1038C0000DE01AF8010B5A4617999047B8F1010814
:1038D000F7D25B4621463846179A13E142E00A22A6
:1038E0000092C4F302524FF0000A022A08D059F89D
:1038F00004CB032A4FEAEC710AD00DE029E02AE05C
:1039000009F1070121F00702F2E802C1914609E03E
:103910000FFA8CFC4FEAEC71042A03D14FFA8CFCAD
:103920004FEAEC71002907DA0A460021DCF1000CAD
:1039300061EB02012D2202E0220504D52B228DF835
:103940000420012203E0E20701D02022F7E790469D
:1039500059E00A2102E010220DE010214FF0000A88
:1039600000910BE010224FF0000A44F004040827F5
:10397000009203E008224FF0000A0092C4F30252C2
:10398000022A05D059F804CB0021032A08D009E007
:1039900009F1070121F00702F2E802C1914605E0B2
:1039A0001FFA8CFC042A01D10CF0FF0C4FF0000828
:1039B000220728D5702806D0009B83F0100353EA15
:1039C0000A0305D00EE040228DF80420012208E011
:1039D0005CEA010206D030228DF804208DF8050043
:1039E00002229046009B83F0080353EA0A030AD19F
:1039F0005CEA010201D1620705D530228DF804206E
:103A00004FF001087F1E582804D034A003900EA860
:103A100002900DE036A0F9E753466046009AFCF7A5
:103A20005FFE84460398825C0298401E02900270FA
:103A30005CEA0100F0D1029806A9081A00F1200AF8
:103A4000600702D524F4803400E00127574502DDE9
:103A5000A7EB0A0000E0002000EB0A0100900598A7
:103A60004144401A0590E00306D45B462146179A6C
:103A7000059800F0B3F90544002706E001A85A466E
:103A8000C05D179990476D1C7F1C4745F6DBE0032E
:103A90000CD55B462146179A059800F09FF905441E
:103AA00004E030205A46179990476D1C0099481E33
:103AB00000900029F5DC08E0029802995A46007847
:103AC000491C0291179990476D1CBAF10001AAF1A7
:103AD000010AF1DC65E100000928010030313233D0
:103AE000343536373839616263646566000000003A
:103AF0003031323334353637383941424344454624
:103B00000000000000F058F90544761C30780028C9
:103B10007FF4ECAD19B02846BDE8F08F620700D401
:103B2000062709F1070222F0070CFCE80223E14610
:103B300003F000485FEA080C02D00FF2702C0DE091
:103B40005FEA045C02D50FF2682C07E05FEAC47CF0
:103B500002D00FF2602C01E0AFF2700C4FF0FF3892
:103B600023F00043CDF850C065280CD006DC452872
:103B700009D046281DD047283DD13DE0662818D001
:103B800067287ED138E00021112F01DB112000E0F1
:103B9000781CCDE9000106A90EA8FFF7EDFCDDE9D0
:103BA0000F010E9A03910021009207F1010A04917E
:103BB0004DE04FF000400097CDE9011006A90EA896
:103BC000FFF7DAFCDDE90F0203920E9B1199002248
:103BD000DDF80CA00093049211B9791C00EB010AE6
:103BE000B7EB0A0004D4C0F1FF3007F1010A0490DA
:103BF000AAEB0700019044E0012F00DA0127002121
:103C0000112F01DD112000E03846CDE9000106A9A1
:103C10000EA8FFF7B1FCDDE90F010E9A0391002118
:103C200004910092BA4621070CD40399514500DA59
:103C30008A46BAF1010F05DD009AAAF10101515C33
:103C4000302908D0B84202DA10F1040F06DA012157
:103C5000CDE9011015E0AAF10101E9E7002805DC32
:103C6000049901440491AAEB000102E0411C514572
:103C700000DD8A460499401A401C01904FF0004034
:103C80000290200704D40198504501DBCDF8048050
:103C900000208DF84F0002980DF14F07B0F1004F52
:103CA00025D02B200E9002984FF0020800280CDA45
:103CB000404202902D200E9007E00A210298FCF766
:103CC000F9FC3031029007F8011DB8F10001A8F1AC
:103CD0000108F2DC02980028EFD1791E0E980870D6
:103CE000307800F0200040F0450007F8020D12A8DF
:103CF000C01B00F107081498007800B1012000EB08
:103D00000A01019801EBE07105984144401A401EF8
:103D10000590E00306D45B462146179A059800F00B
:103D20005DF805441498007818B15A4617999047E1
:103D30006D1CE00324D55B462146179A059800F0D8
:103D40004DF805441CE00498002807DBDDE9030179
:103D5000884203DD0098405C179901E017993020F4
:103D60005A469047049805F10105401C04900198BB
:103D7000401E019004D12E205A46179990476D1C81
:103D8000BAF10001AAF1010ADDDC05E017F8010B28
:103D90005A46179990476D1CB8F10001A8F1010827
:103DA000F4DC5B462146179A0598ABE62D0000002F
:103DB0002B000000200000002DE9F0410446002502
:103DC0001E461746880404D405E039462020B04733
:103DD0006D1C641EF9D52846BDE8F0812DE9F0413F
:103DE000044600251E469046C80301D5302700E052
:103DF0002027880404D505E041463846B0476D1CAD
:103E0000641EF9D52846BDE8F0810A68531C0B6092
:103E10001070704713B54FF6FF73012269460248D0
:103E2000FEF7B2FB00981CBD6C0100202DE9F84F95
:103E3000FDF742F9FFF73DF8FEF7ECFCFEF770FEE8
:103E4000FEF794FDFEF700FEFEF734FEFEF7A4FC3D
:103E5000FEF7CAFCFEF780FEFEF7F4FEFEF7D5FE85
:103E60000021FE48FEF764F80C21FC48FEF760F8DC
:103E70003C21FB48FDF7A4FE3C21FA48FDF7A0FEDB
:103E8000F748FDF75BFDF748FDF758FDF348FDF7F0
:103E900055FDFEF7C5FFF4480068C16841F02001F8
:103EA000C1600122F149F248FEF758FB4FF48051FE
:103EB000F048FDF7E9F8F04EF04D4FF47A74002821
:103EC00049D13046314601F053F9ED4F2868FCF7EF
:103ED000AAFB02460B46EBA1EE48FFF719FBED48A3
:103EE000FCF742F982B23223EA49E148FEF74CFB83
:103EF0002868FCF798FB0246E6480B46E6A114301A
:103F0000FFF706FBE34A0C23143202210020FEF7E0
:103F100065FF2868B842D9DD0021084601F028F97C
:103F20002046FCF7ABFF4FF03F414FF07C5001F0D3
:103F30001FF940F21450FCF7A1FF0021084601F0E0
:103F400017F92046FCF79AFF3046314601F010F988
:103F50002046FCF793FFA0462046FCF78FFF404623
:103F6000FCF78CFF4046FCF789FF4046FCF786FFD4
:103F70004046FCF783FFDFF830B34FF400490122DD
:103F80004C4649465F465846FDF783F84FF4FA7AA7
:103F90005046FCF773FF002221463846FDF779F8BA
:103FA0004046FCF76BFF012221463846FDF771F8C9
:103FB0005046FCF763FF002221463846FDF769F8BA
:103FC0004046FCF75BFF012221463846FDF761F8C9
:103FD0005046FCF753FF002221463846FDF759F8BA
:103FE0004046FCF74BFFB148014601F0C1F840469E
:103FF000FCF744FF9F4FAE4C0A20FCF73FFF2868B8
:10400000FCF711FB02460B469EA1A248FFF780FA7F
:10401000A048FCF7A9F882B232239E499448FEF7E3
:10402000B3FA2868FCF7FFFA02469A480B469AA1B1
:104030001430FFF76DFA974A0C2314320221002046
:10404000FEF7CCFE20213846FDF71EF8012811D1DD
:1040500080213846FDF718F801280BD101212046B0
:10406000FDF712F8012805D102212046FDF70CF8D2
:10407000012806D020213846FDF706F8012809D08E
:104080001AE03046314601F073F84FF4FA60FCF75D
:10409000F5FE72E080213846FCF7F6FF01280BD1CF
:1040A00001212046FCF7F0FF012805D1022120461E
:1040B000FCF7EAFF0028E4D020213846FCF7E4FFB3
:1040C00088B980213846FCF7DFFF01280BD1012198
:1040D0002046FCF7D9FF012805D102212046FCF734
:1040E000D3FF0128CDD020213846FCF7CDFF88B979
:1040F00080213846FCF7C8FF01280BD1012120465A
:10410000FCF7C2FF012805D102212046FCF7BCFFC5
:104110000028B6D020213846FCF7B6FF80B98021B0
:104120003846FCF7B1FF58B901212046FCF7ACFF37
:10413000012805D102212046FCF7A6FF0128A0D0C6
:1041400020213846FCF7A0FF01280FD180213846F6
:10415000FCF79AFF012809D101212046FCF794FFC2
:1041600020B902212046FCF78FFF30B120213846CC
:10417000FCF78AFF00286FD002E10021084600F01A
:10418000F7FF3E480068FCF74EFA02460B463DA199
:104190004048FFF7BDF93F48FBF7E6FF82B2322304
:1041A0003C493348FEF7F0F94FF4004901224946F3
:1041B0005846FCF76EFF5046FCF760FE0022494669
:1041C0005846FCF766FF4FF47A784046FCF756FEF7
:1041D000012249465846FCF75CFF5046FCF74EFE6C
:1041E000002249465846FCF754FF4046FCF746FE7D
:1041F000012249465846FCF74CFF5046FCF73EFE6C
:10420000002249465846FCF744FF4046FCF736FE7C
:10421000FEF726FA2749FBF7AEFFFCF704FA05463E
:104220001C480B4600912A4623A11430FFF770F971
:10423000184A00210C2314320846FEF7CFFD2A4607
:1042400020A11448009BFFF763F91248FBF78CFF8D
:1042500082B232230F493BE07FE00000940000204F
:10426000DC000020240100206C0100200000002060
:10427000B001002000080140CDCC4C3E14000020CD
:104280000000AA424D696C65616765252E32660D96
:104290000A0000002C0000204D696C656167653ADA
:1042A000252E326620000000001001403333B33E5B
:1042B000000C014000007041673A252E3266636DA4
:1042C00000000000673A252E32660D0A000000004B
:1042D000F848FEF759F90520FCF7D0FD4046FCF7F9
:1042E000CDFD4046FCF7CAFD4046FCF7C7FD404601
:1042F000FCF7C4FD012249465846FCF7CAFE504669
:10430000FCF7BCFD002249465846FCF7C2FE404679
:10431000FCF7B4FD012249465846FCF7BAFE504668
:10432000FCF7ACFD002249465846FCF7B2FE404679
:10433000FCF7A4FD012249465846FCF7AAFE504668
:10434000FCF79CFD002249465846FCF7A2FEDFF828
:104350006893DA4DDFF868837BE080213846FCF70C
:1043600093FE68B901212046FCF78EFE40B9022178
:104370002046FCF789FE18B9D248014600F0F8FE45
:1043800020213846FCF780FE98B980213846FCF79A
:104390007BFE70B901212046FCF776FE012808D18A
:1043A00002212046FCF770FE18B9C749C74800F043
:1043B000DFFE20213846FCF767FE98B98021384699
:1043C000FCF762FE70B901212046FCF75DFE48B99A
:1043D00002212046FCF758FE012803D1BC49BB4806
:1043E00000F0C6FE20213846FCF74EFE98B9802129
:1043F0003846FCF749FE01280DD101212046FCF783
:1044000043FE40B902212046FCF73EFE18B9AF49F1
:10441000AD4800F0ADFE20213846FCF735FE0128FE
:104420007FF4EAAD80213846FCF72EFE0028F7D154
:1044300001212046FCF728FE0028F1D10221204668
:10444000FCF722FE0028EBD1A049A14800F090FE25
:10445000D2E52868FCF7E7F802460B46AFF2DC111C
:104460009C48FFF755F89B48FBF77EFE82B232234B
:1044700098499048FEF788F82868FCF7D4F8024677
:104480000B46AFF2EC1193481430FFF741F8914A14
:104490000C23143202210020FEF7A0FC2868FCF750
:1044A000C2F802460B46AFF210218A481430FFF7DB
:1044B0002FF8884A0C23143202210020FEF78EFCCC
:1044C00020213846FCF7E0FD90B980213846FCF702
:1044D000DBFD68B901212046FCF7D6FD40B9022179
:1044E0002046FCF7D1FD18B94846494600F040FE89
:1044F00020213846FCF7C8FD98B980213846FCF7E2
:10450000C3FD70B901212046FCF7BEFD012808D18A
:1045100002212046FCF7B8FD18B94146304600F0AC
:1045200027FE20213846FCF7AFFD98B98021384698
:10453000FCF7AAFD70B901212046FCF7A5FD48B99A
:1045400002212046FCF7A0FD012803D16249304634
:1045500000F00EFE20213846FCF796FD98B9802128
:104560003846FCF791FD01280DD101212046FCF7CA
:104570008BFD40B902212046FCF786FD18B9314673
:10458000404600F0F5FD20213846FCF77DFD01286E
:1045900012D180213846FCF777FD68B90121204609
:1045A000FCF772FD40B902212046FCF76DFD18B9F9
:1045B0003146494800F0DCFDFEF752F86FF07E51BD
:1045C0000844B0F10C7FBFF4C7AE44494FF07E50B1
:1045D00000F0CEFD4FF4AF70FCF750FC0021084610
:1045E00000F0C6FD56465046FCF748FC4FF07E51A1
:1045F000084600F0BDFD4FF4E160FCF73FFC0021F0
:10460000084600F0B5FD3046FCF738FC4FF07E510F
:10461000324800F0ADFD4FF41670FCF72FFC00217E
:10462000084600F0A5FD3046FCF728FC2868FBF79B
:10463000FAFF02460B46AFF2B4312648FEF768FF98
:104640002448FBF791FD82B2322322491948FDF735
:104650009BFF2868FBF7E7FF02460B46AFF2C83125
:104660001C481430FEF754FF1A4A0C23143202215E
:104670000020FEF7B3FB20213846FCF705FD01289A
:1046800011D180213846FCF7FFFC01280BD1012114
:104690002046FCF7F9FC012805D102212046FCF751
:1046A000F3FC01281CD020213846FCF7EDFC012842
:1046B0007DD0B8E0B0010020CDCCCC3E140000206D
:1046C0009A99993E8FC2F53D3333B33E9A99193E7C
:1046D0003333333F2C0000209A99193F000080BFEC
:1046E0004046414600F044FD3046FCF7C7FB002140
:1046F000084600F03DFD3046FCF7C0FB4FF4004A91
:10470000012251465846FCF7C4FC3046FCF7B6FB84
:10471000002251465846FCF7BCFC4FF47A794846D3
:10472000FCF7ACFB012251465846FCF7B2FC304680
:10473000FCF7A4FB002251465846FCF7AAFC484669
:10474000FCF79CFB012251465846FCF7A2FC304680
:10475000FCF794FB002251465846FCF79AFC41F2C4
:104760008830FCF78BFB012251465846FCF791FC40
:104770003046FCF783FB002251465846FCF789FC83
:104780004846FCF77BFB012251465846FCF781FC6A
:104790003046FCF773FB002251465846FCF779FC83
:1047A0004846FCF76BFB01225146584600E027E0E3
:1047B000FCF76FFC3046FCF761FB0022514658467F
:1047C000FCF767FC4FF07C594946084600F0D0FCE6
:1047D00041F2CC00FCF752FB0021084600F0C8FC77
:1047E00040F2DC50FCF74AFB49464FF03F4000F0F6
:1047F000BFFC40F21450FCF741FBA946FB4DFEE024
:1048000080213846FCF740FC01280CD101212046CC
:10481000FCF73AFC012806D102212046FCF734FCC3
:1048200000283FF45DAF20213846FCF72DFC88B905
:1048300080213846FCF728FC01280BD101212046B5
:10484000FCF722FC012805D102212046FCF71CFCC4
:104850000128E6D020213846FCF716FC88B98021D3
:104860003846FCF711FC01280BD101212046FCF74A
:104870000BFC012805D102212046FCF705FC00288D
:10488000CFD020213846FCF7FFFB80B98021384685
:10489000FCF7FAFB58B901212046FCF7F5FB01288B
:1048A00005D102212046FCF7EFFB0128B9D02021D9
:1048B0003846FCF7E9FB012810D180213846FCF787
:1048C000E3FB01280AD101212046FCF7DDFB28B9D2
:1048D00002212046FCF7D8FB0028A2D02021384630
:1048E000FCF7D2FBA8B980213846FCF7CDFB80B994
:1048F00001212046FCF7C8FB58B902212046FCF7ED
:10490000C3FB30B9BAA0FEF7F3FD4846494600F0B4
:104910002FFC20213846FCF7B7FBB0B98021384680
:10492000FCF7B2FB88B901212046FCF7ADFB01285A
:104930000BD102212046FCF7A7FB30B9AFA0FEF750
:10494000D7FD4146B04800F013FC20213846FCF763
:104950009BFBB0B980213846FCF796FB88B9012152
:104960002046FCF791FB60B902212046FCF78CFB46
:10497000012806D1A5A0FEF7BBFDA749A24800F07B
:10498000F7FB20213846FCF77FFBB8B98021384679
:10499000FCF77AFB012811D101212046FCF774FBBA
:1049A00060B902212046FCF76FFB38B99BA0FEF7E7
:1049B0009FFD95494FF07C5000F0DAFB20213846EE
:1049C000FCF762FB01287FF431AE80213846FCF70A
:1049D0005BFB0028F7D101212046FCF755FB00289E
:1049E000F1D102212046FCF74FFB0028EBD18EA02D
:1049F000FEF77EFD8449884800F0BAFB16E64F4674
:104A0000D9F80000FBF70FFE02460B46AFF28C719F
:104A10008848FEF77DFD8748FBF7A6FB82B232236C
:104A200084498548FDF7B0FD3868FBF7FCFD024678
:104A30000B46AFF29C717F481430FEF769FD7D4A4A
:104A40000C23143202210020FEF7C8F97B4F2021ED
:104A50003846FCF719FB012811D180213846FCF7B4
:104A600013FB01280BD101212046FCF70DFB012887
:104A700005D102212046FCF707FB012806D02021A2
:104A80003846FCF701FB01287ED0EEE02846294697
:104A900000F06EFB3046FCF7F1F90021084600F00B
:104AA00067FB3046FCF7EAF90122D1035846FCF7D0
:104AB000F0FA3046FCF7E2F900224FF40041584684
:104AC000FCF7E7FA4FF47A7A5046FCF7D7F901225F
:104AD000D1035846FCF7DDFA3046FCF7CFF9002247
:104AE0004FF400415846FCF7D4FA5046FCF7C6F99B
:104AF0000122D1035846FCF7CCFA3046FCF7BEF948
:104B000000224FF400415846FCF7C3FA41F28830C6
:104B1000FCF7B4F90122D1035846FCF7BAFA304643
:104B2000FCF7ACF900224FF400415846FCF7B1FA0B
:104B30005046FCF7A3F90122D1035846FCF7A9FA25
:104B40003046FCF79BF900224FF400415846FCF731
:104B5000A0FA5046FCF792F90122D1035846FCF71F
:104B600098FA3046FCF78AF900224FF40041584683
:104B7000FCF78FFA4FF07E51314800F0F9FA4FF40C
:104B80009670FCF77BF900E05CE00021084600F03D
:104B9000EFFA4FF41670FCF771F94FF07E510846AA
:104BA00000F0E6FA4FF4E150FCF768F900210846FE
:104BB00000F0DEFA4FF41670FCF760F900210846A9
:104BC00000F0D6FA4FF07E511D4800F0D1FA4FF4B4
:104BD0003470FCF753F90021084600F0C9FA4FF48D
:104BE0001670FCF74BF9B9462FE10000CDCC4C3FD5
:104BF000D3A6B8C3C7B0BDF80D0A0000D3A6B8C38A
:104C0000D3D2D7AA0D0A0000CDCCCC3DBFECCBD976
:104C1000D3D2D7AA0D0A00003333333FD3A6B8C38B
:104C2000D7F3D7AA0D0A0000BFECCBD9D7F3D7AA88
:104C30000D0A00002C000020B001002000080140F7
:104C4000000080BF80213846FCF71EFA01280CD1F5
:104C500001212046FCF718FA012806D1022120463E
:104C6000FCF712FA00283FF411AF20213846FCF778
:104C70000BFA88B980213846FCF706FA01280BD1D7
:104C800001212046FCF700FA012805D10221204627
:104C9000FCF7FAF90128E6D020213846FCF7F4F9B0
:104CA00088B980213846FCF7EFF901280BD10121A2
:104CB0002046FCF7E9F9012805D102212046FCF73E
:104CC000E3F90028CFD020213846FCF7DDF980B980
:104CD00080213846FCF7D8F958B901212046FCF765
:104CE000D3F9012805D102212046FCF7CDF901288E
:104CF000B9D020213846FCF7C7F9012810D180210E
:104D00003846FCF7C1F901280AD101212046FCF7F9
:104D1000BBF928B902212046FCF7B6F90028A2D039
:104D200020213846FCF7B0F9B0B980213846FCF7AD
:104D3000ABF988B901212046FCF7A6F960B9022138
:104D40002046FCF7A1F938B9AFF25C10FEF7D0FBB2
:104D50002846294600F00CFA20213846FCF794F941
:104D6000B8B980213846FCF78FF990B90121204667
:104D7000FCF78AF901280CD102212046FCF784F9BE
:104D800038B9AFF28810FEF7B3FB4146F34800F0A4
:104D9000EFF920213846FCF777F9B8B98021384679
:104DA000FCF772F990B901212046FCF76DF968B95A
:104DB00002212046FCF768F9012807D1AFF2B410B0
:104DC000FEF796FBE649E54800F0D2F92021384687
:104DD000FCF75AF9B8B980213846FCF755F9012893
:104DE00011D101212046FCF74FF960B9022120467C
:104DF000FCF74AF938B9AFF2DC10FEF779FBD74976
:104E0000404600F0B5F920213846FCF73DF901286D
:104E10007FF4F5AC80213846FCF736F90028F7D14D
:104E200001212046FCF730F90028F1D1022120466B
:104E3000FCF72AF90028EBD1AFF21420FEF758FB5B
:104E4000C649C74800F094F9D9E5C64F3868FBF762
:104E5000EAFB02460B46AFF6D431C348FEF758FBD7
:104E6000C148FBF781F982B23223BF49BF48FDF741
:104E70008BFB3868FBF7D7FB02460B46AFF6E831F1
:104E8000B9481430FEF744FBB74A0C231432022110
:104E90000020FDF7A3FF20214F464846FCF7F4F819
:104EA000012811D180213846FCF7EEF801280BD1FA
:104EB00001212046FCF7E8F8012805D1022120460F
:104EC000FCF7E2F8012806D020213846FCF7DCF890
:104ED000012841D052E02846294600F049F93046E1
:104EE000FBF7CCFF0021084600F042F93046FBF703
:104EF000C5FF0122D40321465D465846FCF7C9F898
:104F00003046FBF7BBFF002221462846FCF7C1F8DC
:104F100057465046FBF7B2FF012221462846FCF7D0
:104F2000B8F83046FBF7AAFF002221462846FCF7D6
:104F3000B0F83846FBF7A2FF012221462846FCF7CD
:104F4000A8F83046FBF79AFF002221462846FCF7D6
:104F5000A0F80020BDE8F88F80213846FCF794F8CF
:104F600001280BD101212046FCF78EF8012805D13C
:104F700002212046FCF788F80028ACD020213846D2
:104F8000FCF782F888B980213846FCF77DF80128C3
:104F90000BD101212046FCF777F8012805D1022129
:104FA0002046FCF771F8012895D020213846FCF7FF
:104FB0006BF888B980213846FCF766F801280BD1D8
:104FC00001212046FCF760F8012805D10221204686
:104FD000FCF75AF80028D0D020213846FCF754F8C6
:104FE00080B980213846FCF74FF858B90121204696
:104FF000FCF74AF8012805D102212046FCF744F8C5
:105000000128BAD020213846FCF73EF8012810D1FB
:1050100080213846FCF738F801280AD101212046C2
:10502000FCF732F828B902212046FCF72DF80028B9
:10503000A3D020213846FCF727F8B0B980213846A4
:10504000FCF722F888B901212046FCF71DF860B969
:1050500002212046FCF718F838B9AFF26C40FEF791
:1050600047FA2846294600F083F820213846FCF705
:105070000BF8B8B980213846FCF706F890B9012141
:105080002046FCF701F801280CD102212046FBF74D
:10509000FBFF38B9AFF29C40FEF72AFA41462F4891
:1050A00000F066F820213846FBF7EEFFB8B9802102
:1050B0003846FBF7E9FF90B901212046FBF7E4FFF2
:1050C00068B902212046FBF7DFFF012807D1AFF2C4
:1050D000C440FEF70DFA2249204800F049F820218B
:1050E0003846FBF7D1FFB8B980213846FBF7CCFF33
:1050F000012811D101212046FBF7C6FF60B902212A
:105100002046FBF7C1FF38B9AFF2F040FEF7F0F9E7
:105110001249404600F02CF820213846FBF7B4FF36
:1051200001287FF461AD80213846FBF7ADFF0028F0
:10513000F7D101212046FBF7A7FF0028F1D102217A
:105140002046FBF7A1FF0028EBD1AFF22450FEF779
:10515000CFF90249024800F00BF876E6CDCCCC3D01
:105160009A99193F140000202C000020B001002063
:105170000C4A10B510600C4801600C4801680A48E0
:10518000FDF76AFEFBF736FA044609480168054850
:10519000FDF762FEFBF72EFA2146BDE81040FDF751
:1051A000F9BC000038030020580300201000002044
:1051B0000C000020000000000000000001020304B9
:1051C00006070809000000000102030400000000B7
:1051D00000000000002F000000000700070000147E
:1051E0007F147F1400242A7F2A120062640813238C
:1051F00000364955225000000503000000001C2223
:105200004100000041221C000014083E0814000860
:10521000083E0808000000A0600000080808080810
:10522000000060600000002010080402003E5149A8
:10523000453E0000427F4000004261514946002146
:1052400041454B31001814127F1000274545453960
:10525000003C4A49493000017109050300364949BB
:10526000493600064949291E000036360000000074
:1052700056360000000814224100001414141414BF
:105280000000412214080002015109060032495968
:10529000513E007C1211127C007F49494936003E84
:1052A00041414122007F4141221C007F494949413F
:1052B000007F09090901003E4149497A007F080839
:1052C000087F0000417F4100002040413F01007FF6
:1052D00008142241007F40404040007F020C027FC2
:1052E000007F0408107F003E4141413E007F0909D4
:1052F0000906003E4151215E007F091929460046FA
:10530000494949310001017F0101003F4040403FD0
:10531000001F2040201F003F4038403F006314081A
:1053200014630007087008070061514945430000F5
:105330007F41410000552A552A55000041417F0018
:10534000000402010204004040404040000001020D
:105350000400002054545478007F484444380038F6
:105360004444442000384444487F0038545454187E
:1053700000087E0901020018A4A4A47C007F080490
:1053800004780000447D4000004080847D00007F60
:10539000102844000000417F4000007C041804787D
:1053A000007C0804047800384444443800FC242479
:1053B00024180018242418FC007C08040408004861
:1053C0005454542000043F444020003C4040207C82
:1053D000001C2040201C003C4030403C0044281071
:1053E0002844001CA0A0A07C004464544C44141425
:1053F000141414140000000000000000000000005D
:1054000000000000000000F8000000000000003371
:105410003000000000100C06100C06000000000018
:105420000000000040C07840C0784000043F040401
:105430003F040400007088FC08300000001820FFC2
:10544000211E0000F008F000E018000000211C03FD
:105450001E211E0000F00888700000001E21232479
:105460001927211010160E00000000000000000097
:1054700000000000000000E0180402000000000727
:105480001820400000020418E0000000004020182E
:1054900007000000404080F0804040000202010F01
:1054A00001020200000000F0000000000101011FE5
:1054B00001010100000000000000000080B0700049
:1054C00000000000000000000000000000010101D9
:1054D0000101010100000000000000000030300068
:1054E0000000000000000000806018040060180642
:1054F0000100000000E010080810E000000F10207C
:1055000020100F00001010F8000000000020203FC5
:10551000202000000070080808887000003028244F
:1055200022213000003008888848300000182020F0
:1055300020110E000000C02010F800000007042415
:10554000243F240000F8088888080800001921205A
:1055500020110E0000E0108888180000000F1120B4
:1055600020110E0000380808C83808000000003F6D
:10557000000000000070880808887000001C2221CC
:1055800021221C0000E010080810E0000000312279
:1055900022110F00000000C0C00000000000003019
:1055A000300000000000008000000000000080606B
:1055B00000000000000080402010080000010204EC
:1055C00008102000404040404040400004040404D3
:1055D000040404000008102040800000002010088F
:1055E00004020100007048080808F00000000030C4
:1055F00036010000C030C828E810E0000718272452
:1056000023140B000000C038E0000000203C2302FF
:105610000227382008F8888888700000203F202062
:1056200020110E00C0300808080838000718202094
:105630002010080008F808080810E000203F20208B
:1056400020100F0008F88888E8081000203F20206C
:105650002320180008F88888E8081000203F200060
:1056600003000000C0300808083800000718202098
:10567000221E020008F808000008F808203F210157
:1056800001213F20000808F8080800000020203F02
:105690002020000000000808F8080800C080808072
:1056A0007F00000008F888C028180800203F20016B
:1056B0002638200008F8080000000000203F2020C5
:1056C0002020300008F8F800F8F80800203F003FDC
:1056D000003F200008F830C00008F808203F2000F4
:1056E00007183F00E01008080810E0000F10202005
:1056F00020100F0008F808080808F000203F2101DA
:1057000001010000E01008080810E0000F18242430
:1057100038504F0008F8888888887000203F2000A3
:10572000030C302000708808080838000038202159
:1057300021221C00180808F8080818000000203F63
:105740002000000008F808000008F808001F2020CA
:1057500020201F000878880000C83808000007389B
:105760000E010000F80800F80008F800033C0700EC
:10577000073C0300081868808068180820302C0354
:10578000032C30200838C800C83808000000203F2B
:105790002000000010080808C8380800203826211A
:1057A00020201800000000FE020202000000007F1E
:1057B00040404000000C30C000000000000000012C
:1057C0000638C00000020202FE0000000040404017
:1057D0007F0000000000040202020400000000003C
:1057E00000000000000000000000000080808080B9
:1057F00080808080000202040000000000000000A1
:105800000000000000008080808000000019242239
:1058100022223F2008F8008080000000003F112075
:1058200020110E000000008080800000000E11207A
:1058300020201100000000808088F800000E112058
:1058400020103F200000808080800000001F222266
:1058500022221300008080F0888888180020203FD2
:10586000202000000000808080808000006B9494E5
:105870009493600008F8008080800000203F2100A1
:1058800000203F2000809898000000000020203F6A
:1058900020200000000000809898000000C0808058
:1058A000807F000008F8000080808000203F2402F4
:1058B0002D302000000808F8000000000020203FE4
:1058C000202000008080808080808000203F200099
:1058D0003F20003F8080008080800000203F21002A
:1058E00000203F200000808080800000001F2020DA
:1058F00020201F00808000808000000080FFA12009
:1059000020110E000000008080808000000E112019
:1059100020A0FF80808080008080800020203F21A8
:10592000200001000000808080808000003324245B
:1059300024241900008080E0808000000000001F07
:10594000202000008080000000808000001F2020B8
:1059500020103F20808080000080808000010E3079
:105960000806010080800080008080800F300C03DA
:105970000C300F0000808000808080000020312EDD
:105980000E312000808080000080808080818E70B9
:105990001806010000808080808080000021302C6B
:1059A0002221300000000000807C02020000000084
:1059B000003F404000000000FF0000000000000029
:1059C000FF0000000002027C800000000040403F19
:1059D00000000000000601010202040400000000B3
:1059E00000000000045A0008000000202C00000005
:1059F00058350008305A00082C0000204C0B0000DD
:105A000068350008000000000000000000000000F1
:105A10000000000000000000000000000100000085
:105A200010000000000000000024F400000000004E
:04000005080000ED02
:00000001FF
